:020000040800F2
:1000000000280020712400080D0B00080F0B0008C9
:10001000110B0008130B0008150B0008000000006E
:10002000000000000000000000000000170B0008A6
:10003000190B0008000000001B0B00081D0B000836
:10004000B9240008B9240008B9240008B92400081C
:10005000B9240008B9240008B9240008290B0008B5
:10006000330B0008B9240008B9240008B92400089B
:10007000B9240008B9240008B9240008B9240008EC
:10008000B9240008B9240008B9240008B9240008DC
:10009000B9240008B9240008B9240008B9240008CC
:1000A00000000000B9240008B9240008B9240008A1
:1000B000B9240008B924000839230008B92400082D
:1000C000B9240008B9240008B9240008B92400089C
:1000D000B9240008B9240008B9240008B92400088C
:1000E000B9240008B9240008B9240008B92400087C
:1000F000B92400080000000000000000000000001B
:1001000000000000000000000000000000000000EF
:1001100000000000000000000000000000000000DF
:1001200000000000000000000000000000000000CF
:0C01300000000000000000005FF808F173
:10013C0010B5054C237833B9044B13B10448AFF315
:10014C0000800123237010BD04000020000000007B
:10015C00042500080C4B43B10C4810B50C49AFF307
:10016C0000800C48036823B910BD0A48036833B9F2
:10017C007047094B002BF7D0BDE810401847064BD1
:10018C00002BF5D0184700BF000000000425000824
:10019C000800002004000020000000004FF0FF0CBD
:1001AC001CEAD0521EBF1CEAD15392EA0C0F93EA00
:1001BC000C0F6FD01A4480EA010C400218BF5FEAA2
:1001CC0041211ED04FF0006343EA501043EA511115
:1001DC00A0FB01310CF00040B1F5000F3EBF49000F
:1001EC0041EAD3715B0040EA010062F17F02FD2A13
:1001FC001DD8B3F1004F40EBC25008BF20F00100F6
:10020C00704790F0000F0CF0004C08BF49024CEA0C
:10021C00502040EA51207F3AC2BFD2F1FF0340EA9E
:10022C00C250704740F400004FF00003013A5DDC0F
:10023C0012F1190FDCBF00F000407047C2F1000250
:10024C00410021FA02F1C2F1200200FA02FC5FEA3D
:10025C00310040F1000053EA4C0308BF20EADC7087
:10026C00704792F0000F00F0004C02BF400010F4F9
:10027C00000F013AF9D040EA0C0093F0000F01F0A6
:10028C00004C02BF490011F4000F013BF9D041EAC8
:10029C000C018FE70CEAD15392EA0C0F18BF93EACA
:1002AC000C0F0AD030F0004C18BF31F0004CD8D1F4
:1002BC0080EA010000F00040704790F0000F17BF7B
:1002CC0090F0004F084691F0000F91F0004F14D0C1
:1002DC0092EA0C0F01D142020FD193EA0C0F03D119
:1002EC004B0218BF084608D180EA010000F000401C
:1002FC0040F0FE4040F40000704740F0FE4040F4F7
:10030C00400070474FF0FF0C1CEAD0521EBF1CEA95
:10031C00D15392EA0C0F93EA0C0F69D0A2EB0302B3
:10032C0080EA010C49024FEA402037D04FF080534D
:10033C0043EA111143EA10130CF000408B4238BF12
:10034C005B0042F17D024FF4000C8B4224BF5B1A20
:10035C0040EA0C00B3EB510F24BFA3EB510340EA6E
:10036C005C00B3EB910F24BFA3EB910340EA9C001C
:10037C00B3EBD10F24BFA3EBD10340EADC001B018C
:10038C0018BF5FEA1C1CE0D1FD2A3FF650AF8B4230
:10039C0040EBC25008BF20F0010070470CF0004C3D
:1003AC004CEA50207F32C2BFD2F1FF0340EAC25068
:1003BC00704740F400004FF00003013A37E792F029
:1003CC00000F00F0004C02BF400010F4000F013A87
:1003DC00F9D040EA0C0093F0000F01F0004C02BF82
:1003EC00490011F4000F013BF9D041EA0C0195E7EB
:1003FC000CEAD15392EA0C0F08D142027FF47DAF84
:10040C0093EA0C0F7FF470AF084676E793EA0C0F73
:10041C0004D14B023FF44CAF08466EE730F0004C71
:10042C0018BF31F0004CCAD130F000427FF45CAF01
:10043C0031F000437FF43CAF5FE700BF4FF0FF3C6F
:10044C0006E000BF4FF0010C02E000BF4FF0010CC2
:10045C004DF804CD4FEA40024FEA41037FEA226C8B
:10046C0018BF7FEA236C11D001B052EA530C18BFAD
:10047C0090EA010F58BFB2EB030088BFC81738BF12
:10048C006FEAE17018BF40F0010070477FEA226C00
:10049C0002D15FEA402C05D17FEA236CE4D15FEAFC
:1004AC00412CE1D05DF8040B704700BF8446084630
:1004BC006146FFE70FB5FFF7C9FF002848BF10F1F1
:1004CC00000F0FBD4DF808EDFFF7F4FF0CBF012036
:1004DC0000205DF808FB00BF4DF808EDFFF7EAFFC0
:1004EC0034BF012000205DF808FB00BF4DF808ED7B
:1004FC00FFF7E0FF94BF012000205DF808FB00BF70
:10050C004DF808EDFFF7D2FF94BF012000205DF8F5
:10051C0008FB00BF4DF808EDFFF7C8FF34BF012002
:10052C0000205DF808FB00BF42000ED2B2F1FE4F76
:10053C000BD34FF09E03B3EB126209D44FEA0023A6
:10054C0043F0004323FA02F070474FF0000070476D
:10055C0012F1610F01D1420202D14FF0FF3070470E
:10056C004FF00000704700BF18B9FF22034B1A7000
:10057C0070470122014B1A70704700BF2100002008
:10058C000122014B1A70704720000020FEE700008A
:10059C0000B593B01F4A136823F4C05343F40063AF
:1005AC0013600223059301220892102209920E93E4
:1005BC0000230F9310934FF44003119305A801F0FF
:1005CC001BF8F8B90F230093032301930021029128
:1005DC0003910491684601F023FCB8B901F044FD85
:1005EC000D4BA3FB0030800900F080F9042000F0D3
:1005FC0093F9002211464FF0FF3000F039F913B097
:10060C005DF804FB68210548FFF7C0FF762103481D
:10061C00FFF7BCFF00700040D34D62101C25000892
:10062C0008B500F0EBF8FFF7B3FF01F039FD00F06F
:10063C0051F801F0A1FD01F019FE01F087FE2048F0
:10064C0001F0F8FE1F4801F0FBFE01F0EBFE11E09B
:10065C0000221D4B1A701D49012001F023FE64205D
:10066C0000F0E6F80021012001F01CFE184B1B786D
:10067C00012B16D0144B93F90030012BE8D0B3F1B9
:10068C00FF3FF3D10022104B1A701049032001F0E8
:10069C0009FE642000F0CCF80021032001F002FEDA
:1006AC00E4E700220A4B1A700849022001F0FAFD17
:1006BC00642000F0BDF80021022001F0F3FDD9E721
:1006CC00750500088D050008210000209A99993EB7
:1006DC002000002000B585B01648174B036000239E
:1006EC0043608360C360036143618361C3610362E0
:1006FC00436201228262C362102242638363C3633A
:10070C0000F016FA60B900230193012202920393C0
:10071C0001A9084800F0D8FA38B905B05DF804FB17
:10072C004B210648FFF732FFEDE755210348FFF751
:10073C002DFFF2E7240000200024014028250008AA
:10074C0002680F4B9A4200D0704700B587B003F592
:10075C008A331A6A42F400721A621B6A03F4007339
:10076C000093009B01230193032302930023039323
:10077C0001A9044800F0E6F807B05DF804FB00BFDF
:10078C0000240140000002400E4B1A6842F48072B3
:10079C001A6099680C4A0A409A601A6822F08852CA
:1007AC0022F001121A601A6822F480221A609A68E8
:1007BC0022F47D029A600022DA604FF00062034B53
:1007CC009A607047003802400CC0FF8800ED00E0D2
:1007DC0010B50446074B1868074BA3FB0030800983
:1007EC0000F084F8002221464FF0FF3000F040F872
:1007FC00002010BD00000020D34D621008B503206E
:10080C0000F024F80020FFF7E3FF00F025FB0020A8
:10081C0008BD0000024A136801331360704700BF23
:10082C0078000020014B1868704700BF780000204A
:10083C0010B582B00190FFF7F5FF0446FFF7F2FF09
:10084C00001B019B9842F9D302B010BD074AD36834
:10085C0023F4E0631B041B0C000200F4E06018435B
:10086C0040F0BF6040F40030D060704700ED00E015
:10087C0030B4164BDB68C3F30223C3F10704042C1A
:10088C0028BF04241D1D062D17D9033B012505FA8D
:10089C0004F4013C2140994005FA03F3013B134059
:1008AC00194300280BDB0901C9B200F1604000F5C7
:1008BC00614080F8001330BC70470023E6E700F07D
:1008CC000F000901C9B2024B1954F4E700ED00E026
:1008DC0014ED00E0420900F01F00012303FA00F0C0
:1008EC00014B43F82200704700E100E00138B0F101
:1008FC00807F0AD2064B5860F021064A82F82310FA
:10090C000020986007221A6070470120704700BFD2
:10091C0010E000E000ED00E0042805D0054A136863
:10092C0023F0040313607047024A136843F0040376
:10093C001360704710E000E0704708B5FFF7FCFF4C
:10094C0008BD0000F0B583B000238DE0DE0808364A
:10095C0050F8264003F0070E4FEA8E0E0F2707FAC9
:10096C000EF724EA07040F6907FA0EF73C4340F828
:10097C00264088E086682640CF6807FA0EF73E438B
:10098C008660466826EA05054E68C6F300169E404A
:10099C0035434560C5682C408D6805FA0EF52C432F
:1009AC00C4604C6814F0805F5DD04A4C256A45F0F9
:1009BC0001052562246A04F001040194019C9D0840
:1009CC00AE1C454C54F8264003F00306B6000F2726
:1009DC00B74024EA0704414FB84271D007F580674D
:1009EC00B8426FD007F58067B8426DD007F58067C5
:1009FC00B8426BD007F58067B8425FD0052707FA7D
:100A0C0006F634430235344E46F82540344C2568FE
:100A1C00D44305EA04064F6817F4803F01D042EA3C
:100A2C0005062F4D2E606D6804EA05064F6817F415
:100A3C00003F01D042EA0506294D6E60AD6804EA1C
:100A4C0005064F6817F4801F01D042EA0506244DB5
:100A5C00AE60ED682C404E6816F4001F01D042EADF
:100A6C0005041F4AD46001330A6832FA03F42FD00C
:100A7C0001259D402A40F6D04C68022C3FF466AF0D
:100A8C00122C3FF463AF06684FEA430E032404FABA
:100A9C000EF4E44326404F6807F0030707FA0EF7FD
:100AAC003E4306604E68771E012F7FF663AF112E12
:100ABC003FF460AF122E7FF46DAF5BE704279EE727
:100ACC0000279CE701279AE7022798E7032796E778
:100ADC0003B0F0BD003802400000014000000240AD
:100AEC000004014008B5054B5B69034200D108BD09
:100AFC00024B586101F0AAFCF9E700BF0004014069
:100B0C007047FEE7FEE7FEE7FEE770477047704769
:100B1C0008B5FFF77FFEFFF710FF08BD08B50220F0
:100B2C00FFF7E0FF08BD08B50420FFF7DBFF08BDA9
:100B3C00002800F0BB8070B582B00446C36C002B5B
:100B4C006ED0E36C13F0100F40F0B280E36C23F422
:100B5C00885323F0020343F00203E364554A5368BD
:100B6C0023F4403361680B435360E36862691343B9
:100B7C00E16B4FF4007292FAA2F2B2FA82F201FA2D
:100B8C0002F21343226A1A43606A022393FAA3F314
:100B9C00B3FA83F300FA03F31343626B102A02D007
:100BAC00A16B0A43134321680A6812F0400213D167
:100BBC00A5692B43A568E66935432669B6F5807FA0
:100BCC0041D0012E3CD02A43E56A012D3ED04D6820
:100BDC003948284002434A6021688868374A0240F5
:100BEC001A438A602269B2F5807F46D0012A44D02C
:100BFC0021680A6B22F0F8720A6322689168304A05
:100C0C000A40934249D0E36C23F0120343F01003E3
:100C1C00E364236D43F001032365012002B070BD32
:100C2C00036580F84830274B1A6A42F001021A62B9
:100C3C001B6A03F001030193019BFFF781FD80E721
:100C4C004FF48072BFE74FF48072BCE760B9206B41
:100C5C0001384FF4604595FAA5F5B5FA85F5A8402D
:100C6C0040F400600243B2E7E06C40F02000E06426
:100C7C00206D40F001002065A9E725682A6B22F061
:100C8C00F872A16A01394FF0F87090FAA0F0B0FA3E
:100C9C0080F081400A432A63AFE700202065E36CB3
:100CAC0023F0030343F00103E364B7E7012070472B
:100CBC000120B3E700270140FF16FCFC8DF1FFC0BB
:100CCC00FEFF80BF0038024030B482B00023019395
:100CDC0090F84830012B00F0B980012380F848309F
:100CEC004B68062B28D805682A6C03EB8303053B5D
:100CFC001F249C4022EA04020C6804FA03F31343F9
:100D0C002B640B68092B59D805686A6903EB4303FC
:100D1C0007249C4022EA04028C6804FA03F3134370
:100D2C006B610B68103B012B6CD9002380F84830A9
:100D3C00184602B030BC70470C2B0ED80568EA6B15
:100D4C0003EB8303233B1F249C4022EA04020C6820
:100D5C0004FA03F31343EB63D3E7122B0ED80568A5
:100D6C00AA6B03EB8303413B1F249C4022EA040241
:100D7C000C6804FA03F31343AB63C2E7182B0ED8C9
:100D8C0005686A6B03EB83035F3B1F249C4022EADC
:100D9C0004020C6804FA03F313436B63B1E70568B0
:100DAC002A6B03EB83037D3B1F249C4022EA040245
:100DBC000C6804FA03F313432B63A2E7132B0ED82E
:100DCC0005682A6903EB43031E3B07249C4022EA77
:100DDC0004028C6804FA03F313432B61A1E71A2B6A
:100DEC000ED80568EA6803EB43033C3B07249C40A0
:100DFC0022EA04028C6804FA03F31343EB6090E7D5
:100E0C0000BF8EE7124B5B6813F4000F8DD1104AB4
:100E1C00536843F4000353600B68102B85D10D4BC2
:100E2C001B6802F1467202F52D3202F28332A2FBEC
:100E3C0003239B0C03EB83035A00019202E0019BFA
:100E4C00013B0193019B002BF9D16EE7022070E767
:100E5C00002701400000002000B585B0254B5A6AE0
:100E6C0042F000425A625A6A02F000420192019A20
:100E7C001A6A42F001021A621A6A02F00102029224
:100E8C00029A5A6A42F080525A625B6A03F08053AB
:100E9C000393039B0320FFF7D9FC002211466FF04C
:100EAC000B00FFF7E5FC002211466FF00A00FFF77C
:100EBC00DFFC002211466FF00900FFF7D9FC00227D
:100ECC0011466FF00400FFF7D3FC002211466FF0BF
:100EDC000300FFF7CDFC002211466FF00100FFF775
:100EEC00C7FC002211464FF0FF30FFF7C1FC05B0E4
:100EFC005DF804FB003802400368B0F1804F28D045
:100F0C00164A904225D002F58062904221D0B0F171
:100F1C00804F12D0114A90420FD002F5806290425D
:100F2C000BD002F58032904207D002F580629042DD
:100F3C0003D002F58062904203D123F44073CA6857
:100F4C00134303608B68C3620B68836201234361A4
:100F5C00704723F070034A681343D8E7000400403D
:100F6C0030B4036A23F001030362036A44688269A4
:100F7C0022F073020D682A4323F002038D682B4381
:100F8C00446082614A684263036230BC704730B48B
:100F9C00036A23F010030362036A4468826922F433
:100FAC00E6420D6842EA052223F020038D6843EAED
:100FBC000513446082614A688263036230BC7047E7
:100FCC0030B4036A23F480730362036A4468C26911
:100FDC0022F073020D682A4323F400738D6843EAF0
:100FEC0005234460C2614A68C263036230BC704727
:100FFC0030B4036A23F480530362036A4468C26901
:10100C0022F4E6420D6842EA052223F400538D686F
:10101C0043EA05334460C2614A680264036230BC2F
:10102C00704710B4036A046A24F0010404628469F2
:10103C0024F0F00444EA021223F00A030B43826109
:10104C00036210BC704710B4036A23F010030362F0
:10105C008469036A24F4704444EA023223F0A00346
:10106C0043EA01138261036210BC7047836823F06A
:10107C00700341F007010B438360704710B4846820
:10108C0024F47F4442EA032319430C43846010BCCC
:10109C00704710B4012303FA01F4036A23EA040332
:1010AC000362036A8A401343036210BC70477047A3
:1010BC00A8B110B5044690F835305BB1022384F822
:1010CC003530211D2068FFF717FF012384F83530D8
:1010DC00002010BD80F83430FFF7E9FFEEE7012067
:1010EC0070477047A8B110B5044690F835305BB125
:1010FC00022384F83530211D2068FFF7FDFE012303
:10110C0084F83530002010BD80F83430FFF7E9FF4B
:10111C00EEE70120704710B5044601220068FFF786
:10112C00B8FF2268136843F001031360002010BD60
:10113C007047002847D0F8B505460C4690F8353076
:10114C00002B3BD0022385F83530294651F8042B6F
:10115C00936823F0070393602868FFF7CDFE286897
:10116C0086688369026A21680E4323F4407323F076
:10117C000303A168A76941EA07210B4323F47C43CD
:10118C0023F0FC03E168E76941EA07210B43276977
:10119C00216A090341EA07110B4322F0AA02616894
:1011AC00646941EA04110A43866029688B612B68E3
:1011BC001A62012385F835300020F8BD80F83430F0
:1011CC00FFF7B6FFBEE70120704710B50446B1B17A
:1011DC00042925D0012200210068FFF75AFF0122C3
:1011EC0004212068FFF755FF2268D36843F00203FF
:1011FC00D3602268D36843F00403D36009E0012272
:10120C0000210068FFF745FF2268D36843F0020312
:10121C00D3602268136843F001031360002010BDF3
:10122C00012204210068FFF734FF2268D36843F0E1
:10123C000403D360EDE738B590F83430012B66D059
:10124C000D460446012380F83430022380F83530F3
:10125C000C2A1AD8DFE802F00719191920191919E4
:10126C003419191947000068FFF77AFE2268936950
:10127C0043F0080393612268936923F0040393619C
:10128C0022689369E9680B439361012384F8353034
:10129C00002084F8340038BD0068FFF778FE22681F
:1012AC00936943F4006393612268936923F4806328
:1012BC00936122689369E96843EA01239361E4E747
:1012CC000068FFF77DFE2268D36943F00803D36101
:1012DC002268D36923F00403D3612268D369E968D7
:1012EC000B43D361D1E70068FFF782FE2268D36914
:1012FC0043F40063D3612268D36923F48063D36120
:10130C002268D369E96843EA0123D361BDE702206F
:10131C0038BD90F83430012B7DD010B50446012334
:10132C0080F83430022380F835300268936823F457
:10133C007F4323F0770393600B68402B57D010D971
:10134C00702B3ED01FD8502B47D0602B32D1CA689F
:10135C0049680068FFF777FE60212068FFF786FE7A
:10136C0028E0102B4DD008D9202B4FD0302B21D179
:10137C0030210068FFF77AFE1CE0DBB90021006821
:10138C00FFF774FE16E0B3F5805F0ED0B3F5005F87
:10139C0010D1CB684A6889680068FFF76FFE226835
:1013AC00936843F48043936004E00268936823F0ED
:1013BC0007039360012384F83530002084F834004F
:1013CC0010BDCB684A6889680068FFF757FE226831
:1013DC00936843F077039360ECE7CA684968006848
:1013EC00FFF71FFE50212068FFF740FEE2E7CA68B6
:1013FC0049680068FFF715FE40212068FFF736FEAC
:10140C00D8E710210068FFF731FED3E720210068F0
:10141C00FFF72CFECEE702207047704770477047ED
:10142C007047704710B5044603681A6912F0020F32
:10143C0011D0DA6812F0020F0DD06FF002021A61AF
:10144C000123037503689B6913F0030F5ED0FFF74C
:10145C00E6FF0023237523681A6912F0040F12D0DB
:10146C00DA6812F0040F0ED06FF004021A61022336
:10147C00237523689B6913F4407F4DD02046FFF7FA
:10148C00CEFF0023237523681A6912F0080F12D0BF
:10149C00DA6812F0080F0ED06FF008021A610423FC
:1014AC0023752368DB6913F0030F3CD02046FFF74C
:1014BC00B6FF0023237523681A6912F0100F12D09F
:1014CC00DA6812F0100F0ED06FF010021A610823B8
:1014DC0023752368DB6913F4407F2BD02046FFF77C
:1014EC009EFF0023237523681A6912F0010F03D0A5
:1014FC00DA6812F0010F24D123681A6912F0400F38
:10150C0003D0DA6812F0400F22D110BDFFF786FF2E
:10151C002046FFF785FF9CE72046FFF77FFF20461C
:10152C00FFF77EFFADE72046FFF778FF2046FFF779
:10153C0077FFBEE72046FFF771FF2046FFF770FFED
:10154C00CFE76FF001021A612046FFF766FFD3E781
:10155C006FF040021A612046FFF763FFD5E70000E9
:10156C0082B0224B9B6813F0F00F25D11F4B5B6AA6
:10157C0013F0805F08D01E4B1B6803F4C053B3F507
:10158C00C05F14D0002118E0184A536A43F080530E
:10159C005362536A03F080530193019B144B1B68F5
:1015AC0003F4C053516A21F080515162E7E7B0F562
:1015BC00404F11D0002100E0002179B90D4A136889
:1015CC0023F001030B431360136803F001039942EA
:1015DC000AD0012002B070470121EEE7054A1368DA
:1015EC0043F004031360E9E70020F3E700380240FE
:1015FC0000700040003C024070B582B004460368A5
:10160C0013F0010F58D0744B9B6803F00C03082B9C
:10161C003BD0714B9B6803F00C030C2B30D06368F0
:10162C00012B00F08580002B40F088806A4B1A68F3
:10163C0022F480321A601A6822F480221A606368DD
:10164C00002B00F09180FFF7EDF805464FF40033C6
:10165C0093FAA3F3604B19684FF4003393FAA3F396
:10166C00B3FA83F303F01F03012202FA03F31942C6
:10167C0022D1FFF7D7F8401B6428E7D9032078E381
:10168C00554B9B6813F4803FC9D04FF4003393FA49
:10169C00A3F3514B19684FF4003393FAA3F3B3FA45
:1016AC0083F303F01F03012202FA03F3194203D060
:1016BC006368002B00F05683236813F0020F00F0D0
:1016CC009C80454B9B6803F00C03042B6ED0424B63
:1016DC009B6803F00C030C2B63D0E368002B00F029
:1016EC002A81012292FAA2F3B3FA83F303F1845311
:1016FC0003F58E139B001A60FFF794F8054602233E
:10170C0093FAA3F3344B1968022393FAA3F3B3FAB5
:10171C0083F303F01F03012202FA03F3194240F092
:10172C00FA80FFF77FF8401B0228E8D9032020E35A
:10173C00294A136843F48033136080E7052B09D0E2
:10174C00254B1A6822F480321A601A6822F480221F
:10175C001A6074E7204B1A6842F480221A601A68E7
:10176C0042F480321A606AE7FFF75CF805464FF4E2
:10177C00003393FAA3F3184B19684FF4003393FA20
:10178C00A3F3B3FA83F303F01F03012202FA03F36A
:10179C00194291D0FFF746F8401B6428E7D9032083
:1017AC00E7E20D4B9B6813F4803F96D1022393FA2A
:1017BC00A3F3094B1968022393FAA3F3B3FA83F347
:1017CC0003F01F03012202FA03F3194206D0E36867
:1017DC00934203D00120CCE200380240C148436858
:1017EC0023F4F85321694FF4F85292FAA2F2B2FAA8
:1017FC0082F201FA02F213434360236813F0100FD4
:10180C005CD0B84B9B6813F00C0F40F0D8804FF4B1
:10181C00007393FAA3F3B34B19684FF4007393FA64
:10182C00A3F3B3FA83F303F01F03012202FA03F3C9
:10183C00194203D0A369002B00F09682206AA94BB1
:10184C005B6803F46043984240F29D80FFF788FE8A
:10185C00002840F08B82A3494B6823F46043226A32
:10186C0013434B604B6823F07F43E0694FF07F429A
:10187C0092FAA2F2B2FA82F200FA02F213434B602D
:10188C00236A4FF4604292FAA2F2B2FA82F2D34087
:10189C005A1C4FF400439340924A926802F0F002B3
:1018AC00F02191FAA1F1B1FA81F1CA408E498A5C1A
:1018BC00D3408E4A13600020FEF78AFF236813F092
:1018CC00080F00F017816369002B00F0E6800121FE
:1018DC0091FAA1F2B2FA82F2854B13449B00196083
:1018EC00FEF7A0FF0546022393FAA3F27D4A516B43
:1018FC0093FAA3F3B3FA83F303F01F03012202FA62
:10190C0003F3194240F0F680FEF78CFF401B0228CF
:10191C00E9D903202DE27348436823F4F853216975
:10192C004FF4F85292FAA2F2B2FA82F201FA02F2EF
:10193C001343436061E7012393FAA3F3B3FA83F3F0
:10194C0003F1845303F58E139B0000221A60FEF7FB
:10195C0069FF0546022393FAA3F3624B196802232D
:10196C0093FAA3F3B3FA83F303F01F03012202FAF1
:10197C0003F319423FF441AFFEF754FF401B02281A
:10198C00E8D90320F5E157494B6823F46043184329
:10199C0048604B6823F07F43E0694FF07F4292FA36
:1019AC00A2F2B2FA82F200FA02F213434B60206AFE
:1019BC00FFF7D6FD00283FF463AF0120D9E1A369FE
:1019CC00002B3FD04FF4807393FAA3F3B3FA83F355
:1019DC0003F1845303F58E139B0001221A60FEF76A
:1019EC0021FF05464FF4007393FAA3F33D4B19689E
:1019FC004FF4007393FAA3F3B3FA83F303F01F03CA
:101A0C00012202FA03F3194206D1FEF70BFF401B29
:101A1C000228E7D90320ACE132494B6823F4604338
:101A2C00226A13434B604B6823F07F43E0694FF00D
:101A3C007F4292FAA2F2B2FA82F200FA02F2134355
:101A4C004B603BE74FF4807393FAA3F3B3FA83F341
:101A5C0003F1845303F58E139B0000221A60FEF7EA
:101A6C00E1FE05464FF4007393FAA3F31D4B19687E
:101A7C004FF4007393FAA3F3B3FA83F303F01F0349
:101A8C00012202FA03F319423FF418AFFEF7CAFE23
:101A9C00401B0228E6D903206BE1012292FAA2F244
:101AAC00B2FA82F2124B13449B0000221A60FEF72A
:101ABC00B9FE0546022393FAA3F20A4A516B93FA34
:101ACC00A3F3B3FA83F303F01F03012202FA03F327
:101ADC0019420FD0FEF7A6FE401B0228EAD90320BC
:101AEC0047E100BF00380240342500080000002008
:101AFC00A0C19110236813F0040F00F093809F4B4A
:101B0C005B6A13F0805F3DD19C4B5A6A42F0805265
:101B1C005A625B6A03F080530193019B0125984B39
:101B2C001B6813F4807F2FD0A368012B40D0002BAF
:101B3C0044D1924B5A6B22F480725A635A6B22F442
:101B4C0080625A63A368002B4ED0FEF76BFE0646EC
:101B5C004FF4007393FAA3F2884A516B93FAA3F3F0
:101B6C00B3FA83F303F01F03012202FA03F31942C1
:101B7C0057D1FEF757FE801B41F288339842E7D9C4
:101B8C000320F6E00025CAE77D4A136843F480730E
:101B9C001360FEF747FE0646794B1B6813F4807FF3
:101BAC00C2D1FEF73FFE801B6428F5D90320E0E08C
:101BBC00724A536B43F480735363C3E7052B09D00C
:101BCC006E4B5A6B22F480725A635A6B22F4806209
:101BDC005A63B7E7694B5A6B42F480625A635A6B8B
:101BEC0042F480725A63ADE7FEF71CFE06464FF4D2
:101BFC00007393FAA3F2614A516B93FAA3F3B3FA0D
:101C0C0083F303F01F03012202FA03F3194208D0F5
:101C1C00FEF708FE801B41F288339842E7D9032077
:101C2C00A7E0B5BB636A002B00F0A280534A926810
:101C3C0002F00C020C2A00F09E80022B2FD04FF0E9
:101C4C00807393FAA3F3B3FA83F303F1845303F58C
:101C5C008E139B0000221A60FEF7E4FD04464FF041
:101C6C00007393FAA3F3454B19684FF0007393FA82
:101C7C00A3F3B3FA83F303F01F03012202FA03F375
:101C8C0019426DD0FEF7CEFD001B0228E7D90320C8
:101C9C006FE03A4A536A23F080535362C2E74FF025
:101CAC00807393FAA3F3B3FA83F303F1845303F52C
:101CBC008E139B0000221A60FEF7B4FD05464FF010
:101CCC00007393FAA3F32D4B19684FF0007393FA3A
:101CDC00A3F3B3FA83F303F01F03012202FA03F315
:101CEC00194206D0FEF79EFD401B0228E7D90320BF
:101CFC003FE022498B6823F47D03A26AE06A024329
:101D0C00206B024313438B604FF0807393FAA3F361
:101D1C00B3FA83F303F1845303F58E139B00012272
:101D2C001A60FEF77FFD04464FF0007393FAA3F39D
:101D3C00124B19684FF0007393FAA3F3B3FA83F3C1
:101D4C0003F01F03012202FA03F3194206D1FEF736
:101D5C0069FD001B0228E7D903200AE0002008E0F7
:101D6C00002006E0012004E0012002E0012000E058
:101D7C00002002B070BD0120FBE700BF003802401C
:101D8C0000700040224B986800F00C02082A3CD0EE
:101D9C000C2A13D0042A0FD01D4B586800F4604055
:101DAC004FF4604393FAA3F3B3FA83F3D840431C84
:101DBC004FF40040984070471648704700F470117B
:101DCC004FF4701292FAA2F2B2FA82F221FA02F2F3
:101DDC0011498A5C00F440004FF4400393FAA3F3DA
:101DEC00B3FA83F3D8400130094B9B6813F4803F5E
:101DFC0005D00A4B03FB02F3B3FBF0F07047054B25
:101E0C0003FB02F3B3FBF0F070470448704700BFCC
:101E1C00003802400024F4004C25000800366E0106
:101E2C008D4B1B6803F001038B4214D201290CD09B
:101E3C00894A136823F001030B431360136803F002
:101E4C000103994207D001207047834A136843F07D
:101E5C0004031360ECE770B5036813F0020F06D0AF
:101E6C007E4A936823F0F0038468234393600C4606
:101E7C000546036813F0010F00F0A3804368022BA2
:101E8C0035D0032B48D0012B5BD04FF4007292FA63
:101E9C00A2F2724A10684FF4007292FAA2F2B2FAED
:101EAC0082F202F01F02012101FA02F2104200F04C
:101EBC00D0806A498A6822F0030213438B60FEF7D4
:101ECC00B1FC06466B68022B4ED0032B5BD0012B6A
:101EDC0068D0624B9B6813F00C0F72D0FEF7A2FC1B
:101EEC00801B41F288339842F3D9032070BD4FF424
:101EFC00003292FAA2F2594A10684FF4003292FA68
:101F0C00A2F2B2FA82F202F01F02012101FA02F2ED
:101F1C001042CED1012070BD4FF0007292FAA2F2A5
:101F2C004E4A10684FF0007292FAA2F2B2FA82F2A4
:101F3C0002F01F02012101FA02F21042B9D1012074
:101F4C0070BD022292FAA2F2444A1068022292FA5E
:101F5C00A2F2B2FA82F202F01F02012101FA02F29D
:101F6C001042A6D1012070BD3C4B9B6803F00C03C2
:101F7C00082B26D0FEF756FC801B41F28833984282
:101F8C00F2D9032070BD354B9B6803F00C030C2B6E
:101F9C0017D0FEF747FC801B41F288339842F2D9E8
:101FAC00032070BD2D4B9B6803F00C03042B08D051
:101FBC00FEF738FC801B41F288339842F2D903209B
:101FCC0070BD254B1B6803F001039C4214D2012CFD
:101FDC000CD0214A136823F00103234313601368C8
:101FEC0003F001039C4207D0012070BD1A4A13680C
:101FFC0043F004031360ECE72B6813F0040F06D0D6
:10200C00164A936823F4E063E9680B4393602B68EA
:10201C0013F0080F07D0114A936823F46053296911
:10202C0043EAC1039360FFF7ADFE0C4B9B6803F0D2
:10203C00F003F02292FAA2F2B2FA82F2D340084AEA
:10204C00D35CD840074B18600020FEF7C1FB002082
:10205C0070BD012070BD00BF003C02400038024042
:10206C003425000800000020014B1868704700BFA1
:10207C000000002008B5FFF7F7FF074B9B6803F43F
:10208C00E0634FF4E06292FAA2F2B2FA82F2D34029
:10209C00024AD35CD84008BD0038024044250008F1
:1020AC0070B58AB02E4BDA6942F00402DA61DA6953
:1020BC0002F004020192019ADA6942F02002DA611C
:1020CC00DA6902F020020292029ADA6942F0010205
:1020DC00DA61DA6902F001020392039ADA6942F0DA
:1020EC000202DA61DB6903F002030493049B4FF4F0
:1020FC0060430593032506950024079405A9194808
:10210C00FEF720FC05950695079405A91648FEF7E1
:10211C0019FC02230593154B06930794144E05A93D
:10212C003046FEF70FFC49F6F873059306950794B5
:10213C0005A93046FEF706FC4FF60E73059306957F
:10214C00079405A90B48FEF7FDFB22462146072004
:10215C00FEF78EFB0720FEF7BDFB0AB070BD00BF7B
:10216C000038024000080240001402400000111028
:10217C00000002400004024030B591B0FFF77AFF36
:10218C00354CA4FB0034A40D344B5A6A42F00202C5
:10219C005A625A6A02F002020092009ADA6942F01C
:1021AC000202DA61DB6903F002030193019B312324
:1021BC000B9302230C9300250D9503220E920F9383
:1021CC000BA92748FEF7BEFB2648274B036044604B
:1021DC00856047F22F53C3600561FEF769FF48BB6A
:1021EC0010A94FF4805341F8243D1E48FFF791F895
:1021FC0018BB1C48FEF776FF10BB702302932A46CF
:10220C000395022304930595069502A91548FFF73B
:10221C0012F8C0B9042202A91248FFF70CF8A8B9A9
:10222C0008220DEB02010F48FFF705F888B9284684
:10223C0011B030BD4FF0FF30FAE74FF0FF30F7E749
:10224C004FF0FF30F4E74FF0FF30F1E74FF0FF3085
:10225C00EEE74FF0FF30EBE76BCA5F6B00380240E4
:10226C00000402407C0000200004004008B500215E
:10227C000B48FEF750FF50B904210948FEF74BFFFD
:10228C0040B908210648FEF746FF30B908BD4FF0AB
:10229C00FF3008BD4FF0FF3008BD4FF0FF3008BDD8
:1022AC007C00002038B505460C464FF07E51204688
:1022BC00FEF730F908B14FF07E5400212046FEF7AE
:1022CC000BF930B9022D10D0032D18D0012D02D0EE
:1022DC0038BD0024F6E70F492046FDF75FFFFEF7F7
:1022EC0023F980B20C4B586338BD0A492046FDF7E0
:1022FC0055FFFEF719F980B2074B986338BD0549B5
:10230C002046FDF74BFFFEF70FF980B2024BD86366
:10231C00DEE700BF005EEA4600040040024B1B688B
:10232C001868C0F300107047B400002008B50548C9
:10233C00FFF778F8FFF7F2FF034B1B68C0B2984722
:10234C0008BD00BFB4000020F0000020F0B593B031
:10235C002E4BDA6942F00102DA61DA6902F001020D
:10236C000192019ADA6942F00202DA61DA6902F04A
:10237C0002020292029A5A6A42F004025A625B6AA0
:10238C0003F004030393039B012200211E20FEF79C
:10239C006FFA1E20FEF79EFAC0230D9302250E95B0
:1023AC0000240F940327109711950DA91848FEF7D8
:1023BC00C9FA04230D93174B0E9301260F96109711
:1023CC000DA91548FEF7BEFA2A4621460820FEF74D
:1023DC004FFA0820FEF77EFA1048114B03604FF6B7
:1023EC00FF73C36044600461846004950595069690
:1023FC0007940F2308930A2209920A960B940C93C4
:10240C0004A9FEF796FE13B0F0BD00BF00380240E1
:10241C00000402400000211000000240B400002023
:10242C000008004008B500210148FEF7CEFE08BDAB
:10243C00B4000020014B1860704700BFF000002072
:10244C00014B1860704700BFEC000020042800D03E
:10245C00704708B5024B1B6803B1984708BD00BF15
:10246C00EC000020002103E00B4B5B58435004317F
:10247C000A480B4B42189A42F6D30A4A02E0002350
:10248C0042F8043B084B9A42F9D3FEF77DF900F071
:10249C000FF8FEF7C5F87047602500080000002013
:1024AC000400002004000020F4000020FEE70000DF
:1024BC0070B500250C4E0D4CA41BA410A54209D1DF
:1024CC0000F01AF800250A4E0A4CA41BA410A542D1
:1024DC0005D170BD56F8253098470135EEE756F812
:1024EC00253098470135F2E7582500085825000893
:1024FC00582500085C250008F8B500BFF8BC08BCDE
:10250C009E467047F8B500BFF8BC08BC9E467047A5
:10251C005372632F6D61696E2E6300005372632FCB
:10252C006164632E630000000000000000000000E6
:10253C00010203040607080900000000010203045D
:0C254C00030406080C10182030000000EA
:042558006101000815
:04255C003D01000835
:0425600068FF1F00F1
:04000005080024715A
:00000001FF
