:020000040800F2
:1000000000000220FD0100084D0200084D0200081A
:100010004D0200084D0200084D02000800000000DB
:100020000000000000000000000000004D02000879
:100030004D020008000000004D0200084D020008BB
:100040004D0200084D0200084D0200084D02000854
:100050004D0200084D0200084D0200084D02000844
:100060004D0200084D0200084D0200084D02000834
:100070004D0200084D0200084D0200084D02000824
:100080004D0200084D0200084D0200084D02000814
:100090004D0200084D0200084D0200084D02000804
:1000A0004D0200084D0200084D0200084D020008F4
:1000B0004D0200084D0200084D0200084D020008E4
:1000C0004D0200084D0200084D0200084D020008D4
:1000D0004D0200084D0200084D0200084D020008C4
:1000E0004D0200084D0200084D0200084D020008B4
:1000F0004D0200084D0200084D0200084D020008A4
:100100004D0200084D0200084D0200084D02000893
:100110004D0200084D0200084D0200084D02000883
:100120004D0200084D0200084D0200084D02000873
:100130004D0200084D0200084D0200084D02000863
:100140004D0200084D0200084D0200084D02000853
:100150004D0200084D0200084D0200084D02000843
:100160004D0200084D0200084D0200084D02000833
:100170004D0200084D0200084D020008000000007A
:080180004D0200084D020008C9
:1001880010B5054C237833B9044B13B10448AFF3C9
:1001980000800123237010BD2C0400200000000003
:1001A8002C0400080C4B43B10C480D4910B5AFF3B3
:1001B80000800C48036823B910BD0A48036833B9A6
:1001C8007047094B002BF7D0BDE810401847064B85
:1001D800002BF5D0184700BF000000002C040008D1
:1001E800300400202C0400200000000080B400AF80
:1001F800FEE70000DFF834D0002103E00C4B5B5829
:10020800435004310B480C4B42189A42F6D30B4A20
:1002180002E0002342F8043B094B9A42F9D300F06C
:1002280013F800F047F8FFF7E1FF704700000220DD
:1002380054040008000000202C0400202C04002096
:100248006C040020FEE7000080B400AF164A164B8D
:10025800D3F8883043F47003C2F88830134A134B3C
:100268001B6843F001031360104B00229A600F4A89
:100278000E4B1B6823F0847323F4803313600B4BFD
:100288000B4A5A60094A094B1B6823F48023136000
:10029800064B0022DA60044B4FF000629A6000BF00
:1002A800BD465DF8047B704700ED00E00038024071
:1002B8001030002470B50F4E0F4D761BB61018BFC6
:1002C800002405D0013455F8043B9847A642F9D1DB
:1002D8000A4E0B4D761B00F0A5F8B61018BF002487
:1002E80006D0013455F8043B9847A642F9D170BDB1
:1002F80070BD00BF48040008480400085004000806
:1003080048040008024B13B1024800F005B87047D2
:10031800000000002D030008002301461A46184675
:1003280000F01EB838B50A4C0A4D641BA4100AD058
:1003380004F18043013B05EB8305013C55F8043982
:100348009847002CF9D1BDE8384000F071B800BFDB
:100358005404000850040008704700BF704700BFED
:100368002DE9F8432C4D0646286898460F469146D5
:10037800FFF7F2FF294B1C68D4F84831002B3ED018
:100388005A681F2A1CDC02F1010E76B103EB8201C8
:100398000124C1F88890D3F8880194402043022EA4
:1003A800C3F88801C1F8088123D00232C3F804E0F9
:1003B800286843F82270FFF7D1FF0020BDE8F883D2
:1003C800174B0BB34FF4C870AFF300800346D8B196
:1003D800D4F848210260002141600A46C4F8480167
:1003E8004FF0010EC0F88811C0F88C11002EDCD037
:1003F800CCE7D3F88C110C43C3F88C41D5E704F54E
:10040800A673C4F84831BBE72868FFF7A7FF4FF089
:10041800FF30BDE8F88300BF28040020440400082A
:1004280000000000F8B500BFF8BC08BC9E46704745
:0C043800F8B500BFF8BC08BC9E46704739
:040444000000002094
:080448000D030008AD010008DE
:040450008901000816
:1004540000000000EC02002054030020BC03002034
:100464000000000000000000000000000000000088
:100474000000000000000000000000000000000078
:100484000000000000000000000000000000000068
:100494000000000000000000000000000000000058
:1004A4000000000000000000000000000000000048
:1004B4000000000000000000000000000000000038
:1004C4000000000000000000000000000000000028
:1004D4000000000000000000000000000000000018
:1004E4000000000000000000000000000000000008
:1004F40000000000000000000100000000000000F7
:100504000E33CDAB34126DE6ECDE05000B000000BB
:1005140000000000000000000000000000000000D7
:1005240000000000000000000000000000000000C7
:1005340000000000000000000000000000000000B7
:1005440000000000000000000000000000000000A7
:0C0874000000000000000000480400200C
:04000005080001FDF1
:00000001FF
